:1000000075300075314275325975336675346E75C9
:10001000357475367A75377F75388475398A753ACF
:1000200090753B98753CA5753DBC753EFF753F00CE
:1000300075407F7541B07542D97543F57544FF75BC
:1000400045F57546D97547B075487F75494E754A6F
:1000500025754B09754C00754D09754E25754F7FFB
:10006000C287783030A01530A11630A23530A345B4
:100070007910E6C287F59008D9F880E6783080F0EC
:10008000790F7400C287F5902411D9F8790FF59093
:10009000D9FE790F9411F590D9FA790FF590D9FE20
:1000A00080C0790F7400C2872411F590D9FA759039
:0900B00000D28780AD784080B7D2
:00000001FF