:02000000801E60
:100020007830E675F00A84A9F075F00A84AAF075B4
:100030008140C0E0EA2323232329C0E075813F7873
:1000400030793F803B7581307810790F7D3F758125
:1000500030790FD80280FEE4C3D0E0FA0581058133
:10006000D0E09A400A800019E960E3058180E80544
:1000700081D0E0FBEAC0E015811581EBC0E080E7AC
:10008000740175813FC0E0E99840BAC3E79608194A
:0F00900060EE700280AF74FF75813FC0E080A604
:00000001FF