:1000000080007830E675F00A84A9F075F00A84AAB9
:10001000F0758140C0E0EA2323232329C0E07581E5
:100020003F7830793F80477581307810790F7D3F78
:10003000758130790FD80E7810D0E0F590058105E4
:1000400081D8F680FEE4C3D0E0FA05810581D0E0D6
:100050009A400A800019E960D7058180E80581D0BF
:10006000E0FBEAC0E015811581EBC0E080E7740198
:1000700075813FC0E0E99840AEC3E796081960EE8D
:0D008000700280A374FF75813FC0E0809A7C
:00000001FF