:02000000802E50
:0200030001EC0E
:02000B002118BA
:02001B00212D95
:1000300075823C758301D288D2A8758911758C0BA5
:10004000758ADC758D0B758BDC79007A007B007C02
:1000500000D28CD2A9D2AFC2D520D544E975F00A1E
:1000600084ADF075F00A84AEF0EE93C2B4D2B3F56D
:100070009011E7ED93C2B3C2B4F59011E7EA75F0C1
:100080000A84ADF075F00A84AEF0EE93D2B3D2B428
:10009000F59011E7ED93C2B3D2B4F59011E780B9B2
:1000A00030D5B6EB75F00A84ADF075F00A84AEF089
:1000B000EE93C2B4D2B3F59011E7ED93C2B3C2B4DC
:1000C000F59011E7EC75F00A84ADF075F00A84AE96
:1000D000F0EE93D2B3D2B4F59011E7ED93C2B3D260
:1000E000B4F59011E780B97864D8FE22C2B720A099
:1000F0000630A015D2B732D28ED2ABD2AF0BEB9472
:100100003C5001320C7B003232C28EC2AB758D0B7B
:10011000758BDC7B007C0032C2B6D2B609E9943C18
:10012000500730A11120A111320A790032D2B73024
:10013000A10420A10432D2D532C2D532C0F9A4B074
:06014000999282F8809004
:00000001FF